:100D79002020524649442042617365642020202086
:100D890000417474656E64616E6365205379737490
:100D99006D00506C61636520596F757220436172F3
:100DA900643A00596F7572204944204E6F2E2069AC
:100DB900733A0031363030363641354543333900E0
:100DC90020417474656E64616E636520002052650C
:100DD9006769737465726564002053747564656E20
:100DE900743120004174746E642E204E6F2E3A20A7
:100DF90000256400313630303636424437414237B7
:100E0900002053747564656E7432200031363030B9
:100E19003636323033303630002053747564656E9F
:100E290074332000496E76616C6964204361726491
:010E390000B8
:0310B0000130000C
:060FF100D2927F057E0094
:100FF700E4FDFCC3ED9FEE6480F8EC648098501527
:10100700E4FBFA0BBB00010ABA04F8BBFBF50DBD04
:0510170000010C80DE69
:01101C0022B1
:0A109E00D290C291120FF1C292220B
:10107400A907E954F0F59012109EE9C454F0F590D4
:0310840002109EB9
:0810A800C290120FF1C2922266
:091044007FC87E00120FF77F0146
:10104D00A907E954F0F5901210A8E9C454F0F590F1
:03105D000210A8D6
:0B0FC3007F0112104D7BFF7A0D79C9F1
:100FCE008B088A09890AAB08AA09A90A120E3AFFE8
:100FDE0060101210747401250AF50AE43509F5093A
:030FEE0080E4227A
:101060007F0212104D7F2812104D7F0E12104D7FFF
:041070000102104D1C
:0C108700758920759850758DFDD28E2261
:0B1093003098FD859930C298AF3022E4
:100B5C00D2A61210871210607BFF7A0D7979120FD2
:100B6C00CE7FC012104D7BFF7A0D798A120FCE7F8B
:100B7C00907E01120FF77F0112104D7BFF7A0D79D9
:100B8C009B120FCE7FC012104DE4F569F569AF6969
:100B9C00EF3395E0FEC3EF940CEE64809480500E1E
:100BAC0012109374232569F8A607056980E0742355
:100BBC002569F8E4F67F0112104D7BFF7A0D79ACB4
:100BCC00120FCE7FC012104DE4F569AF69EF33956B
:100BDC00E0FEC3EF940CEE64809480500D74232FD0
:100BEC00F8E6FF121074056980E17F647E00120F35
:100BFC00F7750BFF750C0D750DBC750E00750F0C94
:100C0C007B007A007923120F54EF3395E04F704537
:100C1C000532E53270020531120FC37FC012104D40
:100C2C007BFF7A0D79D6120FCE1210447BFF7A0D12
:100C3C0079E2120FCE7FC012104D7BFF7A0D79ED49
:100C4C00120FCE750BFF750C0D750DFA85310E85D7
:100C5C00320F020D25750BFF750C0D750DFD750E04
:100C6C0000750F0C7B007A007923120F54EF33952B
:100C7C00E04F70440534E53470020533120FC37F26
:100C8C00C012104D7BFF7A0D79D6120FCE12104484
:100C9C007BFF7A0E790A120FCE7FC012104D7BFFAC
:100CAC007A0D79ED120FCE750BFF750C0D750DFAD3
:100CBC0085330E85340F8061750BFF750C0E750D29
:100CCC0015750E00750F0C7B007A007923120F54EA
:100CDC00EF3395E04F707A0536E536700205351224
:100CEC000FC37FC012104D7BFF7A0D79D6120FCE39
:100CFC001210447BFF7A0E7922120FCE7FC0121095
:100D0C004D7BFF7A0D79ED120FCE750BFF750C0D27
:100D1C00750DFA85350E85360F7B007A0079221217
:100D2C00085C7B007A007922120FCED2A4C2A57F78
:100D3C002C7E01120FF7C2A4C2A57FC81E120FF79A
:100D4C00C2A4D2A57F2C0E120FF7C2A4C2A5020B0F
:100D5C00827F0112104D7BFF7A0E792D120FCEC2BD
:0D0D6C00A67F2C7E01120FF7D2A6020B828B
:03000000020EC825
:0C0EC800787FE4F6D8FD758169020F0FF9
:100E3A00BB010689828A83E0225002E722BBFE02B6
:090E4A00E32289828A83E49322E9
:10080000E517240BF8E60517227808300702780B65
:10081000E475F001120E92020E3A2000EB7F2ED208
:10082000008018EF540F2490D43440D4FF30040BD0
:10083000EF24BFB41A0050032461FFE518600215CD
:1008400018051BE51B7002051A30070D7808E475C2
:10085000F001120E92EF020E8002101D7403D207F7
:100860008003E4C207F5178B088A09890AE4F518A2
:10087000F51AF51BE51860077F2012083B80F57517
:1008800019FFC201C200C202C203C205C206C208E9
:10089000120809FF700D3007057F0012084CAF1BCE
:1008A000AE1A22B4255FC2D5C204120809FF24D0B3
:1008B000B40A00501A75F00A781830D50508B6FF4A
:1008C0000106C6A426F620D5047002D20380D924DE
:1008D000CFB41A00EF5004C2E5D204020A4CD20190
:1008E00080C6D20080C0D20280BCD2D580BAD205E8
:1008F00080B47F2012083B2002077401B518004025
:10090000F1120800FF12083B020874D208D20680D8
:1009100095120800FB120800FA120800F94A4B7001
:1009200006791D7A0B7BFF20022EE518602A7E00D7
:100930008E82758300120E5360060EEE651970F0FC
:10094000C2D5EBC0E0EAC0E0E9C0E0EE120A93D005
:10095000E0F9D0E0FAD0E0FB120E3AFF60AAEBC05B
:10096000E0EAC0E0E9C0E012083BD0E02401F9D0A1
:10097000E03400FAD0E0FBE5190460DCD519D98039
:10098000877BFF7A0A798FD202809C791080027966
:1009900008C206C2088008D2D5790A8004790AC242
:1009A000D5E519047002F519E4FAFDFEFF120800FE
:1009B000FC7B08200113120800FD7B1030000A1296
:1009C0000800FE120800FF7B20EC3382D592D55040
:1009D00013C3E43000069FFFE49EFEE42001039D64
:1009E000FDE49CFCE4CBF8C201EC700CCFCECDCC86
:1009F000E824F8F870F38017C3EF33FFEE33FEED11
:100A000033FDEC33FCEB33FB994002FB0FD8E9EBF1
:100A1000300105F8D0E0C448B201C0E00AEC4D4E08
:100A20004F78207B0070C2EAB5190040BCC0E012CC
:100A30000A95D0F0D0E0200104C4C0E0C4B201C0E7
:100A4000F0120824D0F0D5F0EB020874120EA209BF
:100A50001153098B5808E24C08DE42098F4F099761
:0F0A60004409974908F743099D550981460981C3
:100A6F00450981470B3D5008E62D08EA2E090D2B4D
:100A7F0008EE23090B200B262A08A64800000905BB
:100A8F003F3F3F00790AA2D5200314300509B91062
:100A9F00020404B9080104A2D52006025001042063
:100AAF0002689202B518005034C0E07F203003195D
:100ABF007F30A20272067205500F120AECC202C2F8
:100ACF0006C205C2087F30800F300503E9C0E0126F
:100ADF00083B300503D0E0F9D0E0B518CC3005174E
:100AEF007F30B9100C12083B7F583004077F788095
:100AFF0003B9080312083B3002057F2D02083B7F24
:100B0F00202008F87F2B2006F322920280CF286E38
:100B1F00756C6C2900D2011208003001F8C20178FF
:100B2F001830D50108F60208A62D5043495812086F
:100B3F00002403B405004001E4900B389312082CF5
:0D0B4F00743A12082CD20375180402098BA9
:100F54008B088A09890AAB0BAA0CA90D120E3AFE5A
:100F6400AB08AA09A90A120E3AFF6E702BEF600DA6
:100F7400E50F150F7002150E14450E70037F002245
:100F84007401250AF50AE43509F5097401250DF5FE
:100F94000DE4350CF50C80BEAB08AA09A90A120EA3
:100FA4003AFDD3EE6480F8ED64809840037F01221B
:0F0FB400AB0BAA0CA90D120E3AFFC3ED9FFF2243
:100ED400020B5CE493A3F8E493A34003F68001F2CD
:100EE40008DFF48029E493A3F85407240CC8C3331F
:100EF400C4540F4420C8834004F456800146F6DFEE
:100F0400E4800B01020408102040809010B0E47EBD
:100F1400019360BCA3FF543F30E509541FFEE493E2
:100F2400A360010ECF54C025E060A840B8E493A3A9
:100F3400FAE493A3F8E493A3C8C582C8CAC583CAD4
:100F4400F0A3C8C582C8CAC583CADFE9DEE780BE8C
:0110B300003C
:100E5300BB010CE58229F582E5833AF583E0225054
:100E630006E92582F8E622BBFE06E92582F8E2229E
:0D0E7300E58229F582E5833AF583E49322B8
:100E8000BB010689828A83F0225002F722BBFE0151
:020E9000F3224B
:100E9200FAE6FB0808E6F925F0F618E6CA3AF62261
:100EA200D083D082F8E4937012740193700DA3A3DF
:100EB20093F8740193F5828883E4737402936860F3
:060EC200EFA3A3A380DFF3
:10101D00EFB40A07740D121028740A309811A899AC
:10102D00B8130CC2983098FDA899C298B811F63033
:07103D0099FDC299F599220B
:00000001FF
